{
    "contractName": "SolidusGold",
    "abi": [
        {
            "inputs": [],
            "stateMutability": "nonpayable",
            "type": "constructor"
        },
        {
            "anonymous": false,
            "inputs": [
                {
                    "indexed": true,
                    "internalType": "address",
                    "name": "token",
                    "type": "address"
                },
                {
                    "indexed": false,
                    "internalType": "uint256",
                    "name": "supplyCap",
                    "type": "uint256"
                },
                {
                    "indexed": false,
                    "internalType": "uint256",
                    "name": "riskParameter",
                    "type": "uint256"
                },
                {
                    "indexed": false,
                    "internalType": "uint256",
                    "name": "maxRiskParameter",
                    "type": "uint256"
                },
                {
                    "indexed": false,
                    "internalType": "uint256",
                    "name": "tokenDecimals",
                    "type": "uint256"
                }
            ],
            "name": "AddTokenAddress",
            "type": "event"
        },
        {
            "anonymous": false,
            "inputs": [
                {
                    "indexed": false,
                    "internalType": "address",
                    "name": "token",
                    "type": "address"
                },
                {
                    "indexed": false,
                    "internalType": "uint256",
                    "name": "",
                    "type": "uint256"
                }
            ],
            "name": "AlterMaxRiskParameter",
            "type": "event"
        },
        {
            "anonymous": false,
            "inputs": [
                {
                    "indexed": false,
                    "internalType": "address",
                    "name": "token",
                    "type": "address"
                },
                {
                    "indexed": false,
                    "internalType": "uint256",
                    "name": "minRiskParameter",
                    "type": "uint256"
                }
            ],
            "name": "AlterMinRiskParameter",
            "type": "event"
        },
        {
            "anonymous": false,
            "inputs": [
                {
                    "indexed": true,
                    "internalType": "address",
                    "name": "owner",
                    "type": "address"
                },
                {
                    "indexed": true,
                    "internalType": "address",
                    "name": "spender",
                    "type": "address"
                },
                {
                    "indexed": false,
                    "internalType": "uint256",
                    "name": "value",
                    "type": "uint256"
                }
            ],
            "name": "Approval",
            "type": "event"
        },
        {
            "anonymous": false,
            "inputs": [
                {
                    "indexed": false,
                    "internalType": "address",
                    "name": "from",
                    "type": "address"
                },
                {
                    "indexed": false,
                    "internalType": "address",
                    "name": "token",
                    "type": "address"
                },
                {
                    "indexed": false,
                    "internalType": "uint256",
                    "name": "depositAmount",
                    "type": "uint256"
                },
                {
                    "indexed": false,
                    "internalType": "uint256",
                    "name": "mintAmount",
                    "type": "uint256"
                }
            ],
            "name": "Deposit",
            "type": "event"
        },
        {
            "anonymous": false,
            "inputs": [
                {
                    "indexed": false,
                    "internalType": "address",
                    "name": "token",
                    "type": "address"
                },
                {
                    "indexed": false,
                    "internalType": "uint256",
                    "name": "amount",
                    "type": "uint256"
                }
            ],
            "name": "IncreaseTokenSupplyCap",
            "type": "event"
        },
        {
            "anonymous": false,
            "inputs": [
                {
                    "indexed": true,
                    "internalType": "address",
                    "name": "previousOwner",
                    "type": "address"
                },
                {
                    "indexed": true,
                    "internalType": "address",
                    "name": "newOwner",
                    "type": "address"
                }
            ],
            "name": "OwnershipTransferred",
            "type": "event"
        },
        {
            "anonymous": false,
            "inputs": [
                {
                    "indexed": false,
                    "internalType": "address",
                    "name": "from",
                    "type": "address"
                },
                {
                    "indexed": false,
                    "internalType": "address",
                    "name": "token",
                    "type": "address"
                },
                {
                    "indexed": false,
                    "internalType": "uint256",
                    "name": "amount",
                    "type": "uint256"
                }
            ],
            "name": "Redeem",
            "type": "event"
        },
        {
            "anonymous": false,
            "inputs": [
                {
                    "indexed": false,
                    "internalType": "address",
                    "name": "token",
                    "type": "address"
                },
                {
                    "indexed": false,
                    "internalType": "uint256",
                    "name": "amount",
                    "type": "uint256"
                }
            ],
            "name": "ReduceTokenSupplyCap",
            "type": "event"
        },
        {
            "anonymous": false,
            "inputs": [
                {
                    "indexed": false,
                    "internalType": "address",
                    "name": "tokentoken",
                    "type": "address"
                }
            ],
            "name": "RemoveTokenAddress",
            "type": "event"
        },
        {
            "anonymous": false,
            "inputs": [
                {
                    "indexed": true,
                    "internalType": "address",
                    "name": "from",
                    "type": "address"
                },
                {
                    "indexed": true,
                    "internalType": "address",
                    "name": "to",
                    "type": "address"
                },
                {
                    "indexed": false,
                    "internalType": "uint256",
                    "name": "value",
                    "type": "uint256"
                }
            ],
            "name": "Transfer",
            "type": "event"
        },
        {
            "inputs": [
                {
                    "internalType": "address",
                    "name": "_tokenAddress",
                    "type": "address"
                },
                {
                    "internalType": "uint256",
                    "name": "supplyCap",
                    "type": "uint256"
                },
                {
                    "internalType": "uint256",
                    "name": "minRiskParameter",
                    "type": "uint256"
                },
                {
                    "internalType": "uint256",
                    "name": "maxRiskParameter",
                    "type": "uint256"
                },
                {
                    "internalType": "uint256",
                    "name": "tokenDecimals",
                    "type": "uint256"
                }
            ],
            "name": "addTokenAddress",
            "outputs": [],
            "stateMutability": "nonpayable",
            "type": "function"
        },
        {
            "inputs": [
                {
                    "internalType": "address",
                    "name": "owner",
                    "type": "address"
                },
                {
                    "internalType": "address",
                    "name": "spender",
                    "type": "address"
                }
            ],
            "name": "allowance",
            "outputs": [
                {
                    "internalType": "uint256",
                    "name": "",
                    "type": "uint256"
                }
            ],
            "stateMutability": "view",
            "type": "function"
        },
        {
            "inputs": [
                {
                    "internalType": "address",
                    "name": "_tokenAddress",
                    "type": "address"
                },
                {
                    "internalType": "uint256",
                    "name": "newMaxRiskParameter",
                    "type": "uint256"
                }
            ],
            "name": "alterMaxRiskParameter",
            "outputs": [],
            "stateMutability": "nonpayable",
            "type": "function"
        },
        {
            "inputs": [
                {
                    "internalType": "address",
                    "name": "_tokenAddress",
                    "type": "address"
                },
                {
                    "internalType": "uint256",
                    "name": "newMinRiskParameter",
                    "type": "uint256"
                }
            ],
            "name": "alterMinRiskParameter",
            "outputs": [],
            "stateMutability": "nonpayable",
            "type": "function"
        },
        {
            "inputs": [
                {
                    "internalType": "address",
                    "name": "spender",
                    "type": "address"
                },
                {
                    "internalType": "uint256",
                    "name": "amount",
                    "type": "uint256"
                }
            ],
            "name": "approve",
            "outputs": [
                {
                    "internalType": "bool",
                    "name": "",
                    "type": "bool"
                }
            ],
            "stateMutability": "nonpayable",
            "type": "function"
        },
        {
            "inputs": [
                {
                    "internalType": "address",
                    "name": "account",
                    "type": "address"
                }
            ],
            "name": "balanceOf",
            "outputs": [
                {
                    "internalType": "uint256",
                    "name": "",
                    "type": "uint256"
                }
            ],
            "stateMutability": "view",
            "type": "function"
        },
        {
            "inputs": [],
            "name": "decimals",
            "outputs": [
                {
                    "internalType": "uint8",
                    "name": "",
                    "type": "uint8"
                }
            ],
            "stateMutability": "view",
            "type": "function"
        },
        {
            "inputs": [
                {
                    "internalType": "address",
                    "name": "spender",
                    "type": "address"
                },
                {
                    "internalType": "uint256",
                    "name": "subtractedValue",
                    "type": "uint256"
                }
            ],
            "name": "decreaseAllowance",
            "outputs": [
                {
                    "internalType": "bool",
                    "name": "",
                    "type": "bool"
                }
            ],
            "stateMutability": "nonpayable",
            "type": "function"
        },
        {
            "inputs": [
                {
                    "internalType": "address",
                    "name": "_tokenAddress",
                    "type": "address"
                },
                {
                    "internalType": "uint256",
                    "name": "depositAmount",
                    "type": "uint256"
                }
            ],
            "name": "deposit",
            "outputs": [],
            "stateMutability": "nonpayable",
            "type": "function"
        },
        {
            "inputs": [],
            "name": "getAddedTokens",
            "outputs": [
                {
                    "internalType": "address[]",
                    "name": "",
                    "type": "address[]"
                }
            ],
            "stateMutability": "view",
            "type": "function"
        },
        {
            "inputs": [
                {
                    "internalType": "address",
                    "name": "_tokenAddress",
                    "type": "address"
                }
            ],
            "name": "getTokenDetails",
            "outputs": [
                {
                    "internalType": "uint256",
                    "name": "supplyCap",
                    "type": "uint256"
                },
                {
                    "internalType": "uint256",
                    "name": "minRiskParameter",
                    "type": "uint256"
                },
                {
                    "internalType": "uint256",
                    "name": "maxRiskParameter",
                    "type": "uint256"
                },
                {
                    "internalType": "uint256",
                    "name": "balance",
                    "type": "uint256"
                },
                {
                    "internalType": "uint256",
                    "name": "decimal",
                    "type": "uint256"
                }
            ],
            "stateMutability": "view",
            "type": "function"
        },
        {
            "inputs": [
                {
                    "internalType": "address",
                    "name": "spender",
                    "type": "address"
                },
                {
                    "internalType": "uint256",
                    "name": "addedValue",
                    "type": "uint256"
                }
            ],
            "name": "increaseAllowance",
            "outputs": [
                {
                    "internalType": "bool",
                    "name": "",
                    "type": "bool"
                }
            ],
            "stateMutability": "nonpayable",
            "type": "function"
        },
        {
            "inputs": [
                {
                    "internalType": "address",
                    "name": "_tokenAddress",
                    "type": "address"
                },
                {
                    "internalType": "uint256",
                    "name": "amount",
                    "type": "uint256"
                }
            ],
            "name": "increaseTokenSupplyCap",
            "outputs": [],
            "stateMutability": "nonpayable",
            "type": "function"
        },
        {
            "inputs": [],
            "name": "name",
            "outputs": [
                {
                    "internalType": "string",
                    "name": "",
                    "type": "string"
                }
            ],
            "stateMutability": "view",
            "type": "function"
        },
        {
            "inputs": [],
            "name": "owner",
            "outputs": [
                {
                    "internalType": "address",
                    "name": "",
                    "type": "address"
                }
            ],
            "stateMutability": "view",
            "type": "function"
        },
        {
            "inputs": [
                {
                    "internalType": "address",
                    "name": "_tokenAddress",
                    "type": "address"
                },
                {
                    "internalType": "uint256",
                    "name": "amount",
                    "type": "uint256"
                }
            ],
            "name": "redeem",
            "outputs": [],
            "stateMutability": "nonpayable",
            "type": "function"
        },
        {
            "inputs": [
                {
                    "internalType": "address",
                    "name": "_tokenAddress",
                    "type": "address"
                },
                {
                    "internalType": "uint256",
                    "name": "amount",
                    "type": "uint256"
                }
            ],
            "name": "reduceTokenSupplyCap",
            "outputs": [],
            "stateMutability": "nonpayable",
            "type": "function"
        },
        {
            "inputs": [
                {
                    "internalType": "address",
                    "name": "_tokenAddress",
                    "type": "address"
                }
            ],
            "name": "removeTokenAddress",
            "outputs": [],
            "stateMutability": "nonpayable",
            "type": "function"
        },
        {
            "inputs": [],
            "name": "renounceOwnership",
            "outputs": [],
            "stateMutability": "nonpayable",
            "type": "function"
        },
        {
            "inputs": [],
            "name": "symbol",
            "outputs": [
                {
                    "internalType": "string",
                    "name": "",
                    "type": "string"
                }
            ],
            "stateMutability": "view",
            "type": "function"
        },
        {
            "inputs": [
                {
                    "internalType": "uint256",
                    "name": "",
                    "type": "uint256"
                }
            ],
            "name": "tokenAddresses",
            "outputs": [
                {
                    "internalType": "address",
                    "name": "",
                    "type": "address"
                }
            ],
            "stateMutability": "view",
            "type": "function"
        },
        {
            "inputs": [
                {
                    "internalType": "address",
                    "name": "",
                    "type": "address"
                }
            ],
            "name": "tokens",
            "outputs": [
                {
                    "internalType": "address",
                    "name": "tokenAddress",
                    "type": "address"
                },
                {
                    "internalType": "uint256",
                    "name": "balance",
                    "type": "uint256"
                },
                {
                    "internalType": "uint256",
                    "name": "supplyCap",
                    "type": "uint256"
                },
                {
                    "internalType": "uint256",
                    "name": "minRiskParameter",
                    "type": "uint256"
                },
                {
                    "internalType": "uint256",
                    "name": "maxRiskParameter",
                    "type": "uint256"
                },
                {
                    "internalType": "uint256",
                    "name": "tokenDecimals",
                    "type": "uint256"
                }
            ],
            "stateMutability": "view",
            "type": "function"
        },
        {
            "inputs": [],
            "name": "totalSupply",
            "outputs": [
                {
                    "internalType": "uint256",
                    "name": "",
                    "type": "uint256"
                }
            ],
            "stateMutability": "view",
            "type": "function"
        },
        {
            "inputs": [
                {
                    "internalType": "address",
                    "name": "to",
                    "type": "address"
                },
                {
                    "internalType": "uint256",
                    "name": "amount",
                    "type": "uint256"
                }
            ],
            "name": "transfer",
            "outputs": [
                {
                    "internalType": "bool",
                    "name": "",
                    "type": "bool"
                }
            ],
            "stateMutability": "nonpayable",
            "type": "function"
        },
        {
            "inputs": [
                {
                    "internalType": "address",
                    "name": "from",
                    "type": "address"
                },
                {
                    "internalType": "address",
                    "name": "to",
                    "type": "address"
                },
                {
                    "internalType": "uint256",
                    "name": "amount",
                    "type": "uint256"
                }
            ],
            "name": "transferFrom",
            "outputs": [
                {
                    "internalType": "bool",
                    "name": "",
                    "type": "bool"
                }
            ],
            "stateMutability": "nonpayable",
            "type": "function"
        },
        {
            "inputs": [
                {
                    "internalType": "address",
                    "name": "newOwner",
                    "type": "address"
                }
            ],
            "name": "transferOwnership",
            "outputs": [],
            "stateMutability": "nonpayable",
            "type": "function"
        }
    ],
    "bytecode": "6080604052670de0b6b3a76400006006553480156200001d57600080fd5b506040518060400160405280600b81526020016a14dbdb1a591d5cd1dbdb1960aa1b81525060405180604001604052806002815260200161534760f01b81525081600390816200006e919062000515565b5060046200007d828262000515565b5050506200009a620000946200011a60201b60201c565b6200011e565b620000d6735fbdb2315678afecb367f032d93f642f64180aa3633b9aca006805b12aefafa804000068068155a43676e00000620f424062000170565b6200011473e7f1725e7734ce288f8367e1bb143e90bb3f051264e8d4a5100068058788cb94b1d800006806aaf7c8516d0c0000633b9aca0062000170565b6200060d565b3390565b600580546001600160a01b038381166001600160a01b0319831681179093556040519116919082907f8be0079c531659141344cd1fd0a4f28419497f9722a3daafe3b4186f6b6457e090600090a35050565b6200017a62000412565b6001600160a01b038581166000908152600760205260409020541615620001e85760405162461bcd60e51b815260206004820152601560248201527f546f6b656e20616c726561647920696e20706f6f6c000000000000000000000060448201526064015b60405180910390fd5b600654620001f8906064620005e1565b831015620002805760405162461bcd60e51b815260206004820152604860248201527f6d696e5269736b506172616d657465722063616e6e6f74206265206c6573732060448201527f7468616e2031303020616e64206d757374206861766520313820646563696d616064820152676c20706c6163657360c01b608482015260a401620001df565b82821015620002f85760405162461bcd60e51b815260206004820152603560248201527f6d61785269736b506172616d657465722063616e6e6f74206265206c6573732060448201527f7468616e206d696e5269736b506172616d6574657200000000000000000000006064820152608401620001df565b6040805160c0810182526001600160a01b03808816808352600060208085018281528587018b8152606087018b8152608088018b815260a089018b815287875260079095528986209851895498166001600160a01b031998891617895592516001808a01919091559151600289015551600388015590516004870155905160059095019490945560088054948501815590527ff3f7a9fe364faab93b216da50a3214154f22a0a2b415b23a84c8169e8b636ee390920180549091168217905590517f125212f18626ba8d0ff41f62a9647c4ca099f433ca96a131e164885ec871e6a6906200040390879087908790879093845260208401929092526040830152606082015260800190565b60405180910390a25050505050565b6005546001600160a01b031633146200046e5760405162461bcd60e51b815260206004820181905260248201527f4f776e61626c653a2063616c6c6572206973206e6f7420746865206f776e65726044820152606401620001df565b565b634e487b7160e01b600052604160045260246000fd5b600181811c908216806200049b57607f821691505b602082108103620004bc57634e487b7160e01b600052602260045260246000fd5b50919050565b601f8211156200051057600081815260208120601f850160051c81016020861015620004eb5750805b601f850160051c820191505b818110156200050c57828155600101620004f7565b5050505b505050565b81516001600160401b0381111562000531576200053162000470565b620005498162000542845462000486565b84620004c2565b602080601f831160018114620005815760008415620005685750858301515b600019600386901b1c1916600185901b1785556200050c565b600085815260208120601f198616915b82811015620005b25788860151825594840194600190910190840162000591565b5085821015620005d15787850151600019600388901b60f8161c191681555b5050505050600190811b01905550565b80820281158282048414176200060757634e487b7160e01b600052601160045260246000fd5b92915050565b6122d2806200061d6000396000f3fe608060405234801561001057600080fd5b506004361061018e5760003560e01c8063715018a6116100de578063a9059cbb11610097578063dfef3ca911610071578063dfef3ca9146103bd578063e4860339146103d2578063e5df8b8414610456578063f2fde38b1461046957600080fd5b8063a9059cbb14610384578063bbb32c2114610397578063dd62ed3e146103aa57600080fd5b8063715018a6146102b857806388aa8bee146102c05780638da5cb5b1461033157806395d89b411461035657806397b7cb6a1461035e578063a457c2d71461037157600080fd5b80632496f3151161014b5780633950935111610125578063395093511461025657806347e7ef24146102695780634b3a35fb1461027c57806370a082311461028f57600080fd5b80632496f315146102215780632da1867a14610234578063313ce5671461024757600080fd5b806306fdde0314610193578063095ea7b3146101b157806318160ddd146101d45780631e9a6950146101e65780631fa2634a146101fb57806323b872dd1461020e575b600080fd5b61019b61047c565b6040516101a89190611cea565b60405180910390f35b6101c46101bf366004611d54565b61050e565b60405190151581526020016101a8565b6002545b6040519081526020016101a8565b6101f96101f4366004611d54565b610528565b005b6101f9610209366004611d54565b6107ab565b6101c461021c366004611d7e565b6108ae565b6101f961022f366004611dba565b6108d2565b6101f9610242366004611ddc565b610a79565b604051601281526020016101a8565b6101c4610264366004611d54565b610cae565b6101f9610277366004611d54565b610cd0565b6101f961028a366004611d54565b611105565b6101d861029d366004611dba565b6001600160a01b031660009081526020819052604090205490565b6101f9611200565b6103096102ce366004611dba565b6001600160a01b0316600090815260076020526040902060028101546003820154600483015460018401546005909401549294919390929091565b604080519586526020860194909452928401919091526060830152608082015260a0016101a8565b6005546001600160a01b03165b6040516001600160a01b0390911681526020016101a8565b61019b611214565b6101f961036c366004611d54565b611223565b6101c461037f366004611d54565b61140c565b6101c4610392366004611d54565b611487565b6101f96103a5366004611d54565b611495565b6101d86103b8366004611e1e565b611543565b6103c561156e565b6040516101a89190611e51565b61041f6103e0366004611dba565b6007602052600090815260409020805460018201546002830154600384015460048501546005909501546001600160a01b039094169492939192909186565b604080516001600160a01b0390971687526020870195909552938501929092526060840152608083015260a082015260c0016101a8565b61033e610464366004611e9e565b6115cf565b6101f9610477366004611dba565b6115f9565b60606003805461048b90611eb7565b80601f01602080910402602001604051908101604052809291908181526020018280546104b790611eb7565b80156105045780601f106104d957610100808354040283529160200191610504565b820191906000526020600020905b8154815290600101906020018083116104e757829003601f168201915b5050505050905090565b60003361051c818585611672565b60019150505b92915050565b336000908152602081905260409020548111156105985760405162461bcd60e51b815260206004820152602360248201527f43616e6e6f742072656465656d206d6f7265207468616e206f776e2062616c616044820152626e636560e81b60648201526084015b60405180910390fd5b6001600160a01b03828116600090815260076020526040902054166105f35760405162461bcd60e51b8152602060048201526011602482015270151bdad95b881b9bdd081a5b881c1bdbdb607a1b604482015260640161058f565b6006546001600160a01b03831660009081526007602052604081206005015490919061061f9084611f07565b6106299190611f34565b6001600160a01b0384166000908152600760205260409020600101549091508111156106af5760405162461bcd60e51b815260206004820152602f60248201527f52656465656d696e6720776f756c642073656e6420746f6b656e20706f6f6c2060448201526e062616c616e63652062656c6f77203608c1b606482015260840161058f565b60405163a9059cbb60e01b8152336004820152602481018290526001600160a01b0384169063a9059cbb906044016020604051808303816000875af11580156106fc573d6000803e3d6000fd5b505050506040513d601f19601f820116820180604052508101906107209190611f48565b506001600160a01b0383166000908152600760205260408120600101805483929061074c908490611f6a565b9091555061075c90503383611797565b604080513381526001600160a01b03851660208201529081018290527fd12200efa34901b99367694174c3b0d32c99585fdf37c7c26892136ddd0836d9906060015b60405180910390a1505050565b6107b36118c1565b6001600160a01b03828116600090815260076020526040902054166107ea5760405162461bcd60e51b815260040161058f90611f7d565b6006546107f8906064611f07565b8110156108175760405162461bcd60e51b815260040161058f90611fb4565b6001600160a01b0382166000908152600760205260409020600401548111156108525760405162461bcd60e51b815260040161058f90611ffb565b6001600160a01b038216600081815260076020908152604091829020600301849055815192835282018390527f6d9d9db01f5dd8b2ddb168c67a19493a2046434c80c6e3f4dff70cf6afdb8b2891015b60405180910390a15050565b6000336108bc85828561191b565b6108c7858585611995565b506001949350505050565b6108da6118c1565b6001600160a01b038116600090815260076020526040812080546001600160a01b03191681556001810182905560028101829055600381018290556004810182905560050181905561092b82611b39565b60085490915081106109795760405162461bcd60e51b8152602060048201526017602482015276151bdad95b881859191c995cdcc81b9bdd08199bdd5b99604a1b604482015260640161058f565b60085461098890600190611f6a565b811015610a0a576008805461099f90600190611f6a565b815481106109af576109af612050565b600091825260209091200154600880546001600160a01b0390921691839081106109db576109db612050565b9060005260206000200160006101000a8154816001600160a01b0302191690836001600160a01b031602179055505b6008805480610a1b57610a1b612066565b6000828152602090819020600019908301810180546001600160a01b03191690559091019091556040516001600160a01b03841681527f1d04698cae7ce6ee11478a0d464cc3fb76319119883e7efc2f9465fc5f1d226591016108a2565b610a816118c1565b6001600160a01b038581166000908152600760205260409020541615610ae15760405162461bcd60e51b8152602060048201526015602482015274151bdad95b88185b1c9958591e481a5b881c1bdbdb605a1b604482015260640161058f565b600654610aef906064611f07565b831015610b755760405162461bcd60e51b815260206004820152604860248201527f6d696e5269736b506172616d657465722063616e6e6f74206265206c6573732060448201527f7468616e2031303020616e64206d757374206861766520313820646563696d616064820152676c20706c6163657360c01b608482015260a40161058f565b82821015610b955760405162461bcd60e51b815260040161058f90611ffb565b6040805160c0810182526001600160a01b03808816808352600060208085018281528587018b8152606087018b8152608088018b815260a089018b815287875260079095528986209851895498166001600160a01b031998891617895592516001808a01919091559151600289015551600388015590516004870155905160059095019490945560088054948501815590527ff3f7a9fe364faab93b216da50a3214154f22a0a2b415b23a84c8169e8b636ee390920180549091168217905590517f125212f18626ba8d0ff41f62a9647c4ca099f433ca96a131e164885ec871e6a690610c9f90879087908790879093845260208401929092526040830152606082015260800190565b60405180910390a25050505050565b60003361051c818585610cc18383611543565b610ccb919061207c565b611672565b6001600160a01b0382811660009081526007602052604090205416610d2b5760405162461bcd60e51b8152602060048201526011602482015270151bdad95b881b9bdd081a5b881c1bdbdb607a1b604482015260640161058f565b6001600160a01b03821660009081526007602052604090206002810154600190910154610d58908361207c565b1115610db55760405162461bcd60e51b815260206004820152602660248201527f4465706f73697420616d6f756e7420776f756c6420657863656564207375707060448201526506c79206361760d41b606482015260840161058f565b6001600160a01b038216600090815260076020526040812060010154610ddc90839061207c565b6001600160a01b0384166000908152600760205260408120600181015460029182015493945092610e0d91906121c7565b6006546001600160a01b03871660009081526007602052604090206004810154600390910154610e3d91906121d6565b610e4791906121fd565b610e51919061222d565b6006546001600160a01b03871660009081526007602052604081206004015492935091610e7f9086906121fd565b610e8991906121fd565b6001600160a01b038716600090815260076020526040902060020154600390610eb290876121d6565b610ebc91906121c7565b610ec760038561222d565b610ed191906121fd565b610edb919061225b565b6006546001600160a01b03881660009081526007602052604081206004015492935091610f099086906121fd565b610f1391906121fd565b6001600160a01b038816600090815260076020526040902060020154600390610f3c90876121d6565b610f4691906121c7565b610f5160038661222d565b610f5b91906121fd565b610f65919061225b565b90506000610f7382846121d6565b90506000610f818883611f34565b90506000816006546006548b610f979190611f07565b610fa2906064611f07565b610fac9190611f07565b610fb69190611f34565b6001600160a01b038b1660009081526007602052604081206005015491925090610fe890670de0b6b3a7640000611f34565b610ff29083611f07565b6040516323b872dd60e01b8152336004820152306024820152604481018c90529091506001600160a01b038c16906323b872dd906064016020604051808303816000875af1158015611048573d6000803e3d6000fd5b505050506040513d601f19601f8201168201806040525081019061106c9190611f48565b506001600160a01b038b16600090815260076020526040812060010180548c929061109890849061207c565b909155506110a890503382611bd9565b604080513381526001600160a01b038d1660208201529081018b9052606081018290527fdcbc1c05240f31ff3ad067ef1ee35ce4997762752e3a095284754544f4c709d79060800160405180910390a15050505050505050505050565b61110d6118c1565b6001600160a01b03828116600090815260076020526040902054166111445760405162461bcd60e51b815260040161058f90611f7d565b600654611152906064611f07565b8110156111715760405162461bcd60e51b815260040161058f90611fb4565b6001600160a01b0382166000908152600760205260409020600301548110156111ac5760405162461bcd60e51b815260040161058f90611ffb565b6001600160a01b038216600081815260076020908152604091829020600401849055815192835282018390527f47b962cc511d608297a1b006e6ce0babee149510964ef4d719c8493775bf0a1091016108a2565b6112086118c1565b6112126000611c98565b565b60606004805461048b90611eb7565b61122b6118c1565b6001600160a01b03828116600090815260076020526040902054166112625760405162461bcd60e51b815260040161058f90611f7d565b6001600160a01b0382166000908152600760205260409020600201548111156112e95760405162461bcd60e51b815260206004820152603360248201527f416d6f756e7420746f207265647563652069732067726561746572207468616e60448201527202063757272656e7420737570706c792063617606c1b606482015260840161058f565b6001600160a01b038216600090815260076020526040812060020154611310908390611f6a565b6001600160a01b03841660009081526007602052604090206001015490915081101561139d5760405162461bcd60e51b815260206004820152603660248201527f43616e6e6f742072656475636520737570706c79206361702062656c6f7720746044820152751bdad95b89dcc818985b185b98d9481a5b881c1bdbdb60521b606482015260840161058f565b6001600160a01b038316600090815260076020526040812060020180548492906113c8908490611f6a565b9091555050604080516001600160a01b0385168152602081018490527f5c7435d5f79213568fa1d3afd95440f49b9dd7cbfcd7977a9b9594720e1b434e910161079e565b6000338161141a8286611543565b90508381101561147a5760405162461bcd60e51b815260206004820152602560248201527f45524332303a2064656372656173656420616c6c6f77616e63652062656c6f77604482015264207a65726f60d81b606482015260840161058f565b6108c78286868403611672565b60003361051c818585611995565b61149d6118c1565b6001600160a01b03828116600090815260076020526040902054166114d45760405162461bcd60e51b815260040161058f90611f7d565b6001600160a01b038216600090815260076020526040812060020180548392906114ff90849061207c565b9091555050604080516001600160a01b0384168152602081018390527fc94ed72427689b6f67921e6099d57e24309ff1c142d73d29ef327201457ebe9b91016108a2565b6001600160a01b03918216600090815260016020908152604080832093909416825291909152205490565b6060600880548060200260200160405190810160405280929190818152602001828054801561050457602002820191906000526020600020905b81546001600160a01b031681526001909101906020018083116115a8575050505050905090565b600881815481106115df57600080fd5b6000918252602090912001546001600160a01b0316905081565b6116016118c1565b6001600160a01b0381166116665760405162461bcd60e51b815260206004820152602660248201527f4f776e61626c653a206e6577206f776e657220697320746865207a65726f206160448201526564647265737360d01b606482015260840161058f565b61166f81611c98565b50565b6001600160a01b0383166116d45760405162461bcd60e51b8152602060048201526024808201527f45524332303a20617070726f76652066726f6d20746865207a65726f206164646044820152637265737360e01b606482015260840161058f565b6001600160a01b0382166117355760405162461bcd60e51b815260206004820152602260248201527f45524332303a20617070726f766520746f20746865207a65726f206164647265604482015261737360f01b606482015260840161058f565b6001600160a01b0383811660008181526001602090815260408083209487168084529482529182902085905590518481527f8c5be1e5ebec7d5bd14f71427d1e84f3dd0314c0f7b2291e5b200ac8c7c3b92591015b60405180910390a3505050565b6001600160a01b0382166117f75760405162461bcd60e51b815260206004820152602160248201527f45524332303a206275726e2066726f6d20746865207a65726f206164647265736044820152607360f81b606482015260840161058f565b6001600160a01b0382166000908152602081905260409020548181101561186b5760405162461bcd60e51b815260206004820152602260248201527f45524332303a206275726e20616d6f756e7420657863656564732062616c616e604482015261636560f01b606482015260840161058f565b6001600160a01b0383166000818152602081815260408083208686039055600280548790039055518581529192917fddf252ad1be2c89b69c2b068fc378daa952ba7f163c4a11628f55a4df523b3ef910161178a565b6005546001600160a01b031633146112125760405162461bcd60e51b815260206004820181905260248201527f4f776e61626c653a2063616c6c6572206973206e6f7420746865206f776e6572604482015260640161058f565b60006119278484611543565b9050600019811461198f57818110156119825760405162461bcd60e51b815260206004820152601d60248201527f45524332303a20696e73756666696369656e7420616c6c6f77616e6365000000604482015260640161058f565b61198f8484848403611672565b50505050565b6001600160a01b0383166119f95760405162461bcd60e51b815260206004820152602560248201527f45524332303a207472616e736665722066726f6d20746865207a65726f206164604482015264647265737360d81b606482015260840161058f565b6001600160a01b038216611a5b5760405162461bcd60e51b815260206004820152602360248201527f45524332303a207472616e7366657220746f20746865207a65726f206164647260448201526265737360e81b606482015260840161058f565b6001600160a01b03831660009081526020819052604090205481811015611ad35760405162461bcd60e51b815260206004820152602660248201527f45524332303a207472616e7366657220616d6f756e7420657863656564732062604482015265616c616e636560d01b606482015260840161058f565b6001600160a01b03848116600081815260208181526040808320878703905593871680835291849020805487019055925185815290927fddf252ad1be2c89b69c2b068fc378daa952ba7f163c4a11628f55a4df523b3ef910160405180910390a361198f565b6000805b600854811015611b9657826001600160a01b031660088281548110611b6457611b64612050565b6000918252602090912001546001600160a01b031603611b845792915050565b80611b8e81612283565b915050611b3d565b5060405162461bcd60e51b8152602060048201526017602482015276151bdad95b881859191c995cdcc81b9bdd08199bdd5b99604a1b604482015260640161058f565b6001600160a01b038216611c2f5760405162461bcd60e51b815260206004820152601f60248201527f45524332303a206d696e7420746f20746865207a65726f206164647265737300604482015260640161058f565b8060026000828254611c41919061207c565b90915550506001600160a01b038216600081815260208181526040808320805486019055518481527fddf252ad1be2c89b69c2b068fc378daa952ba7f163c4a11628f55a4df523b3ef910160405180910390a35050565b600580546001600160a01b038381166001600160a01b0319831681179093556040519116919082907f8be0079c531659141344cd1fd0a4f28419497f9722a3daafe3b4186f6b6457e090600090a35050565b600060208083528351808285015260005b81811015611d1757858101830151858201604001528201611cfb565b506000604082860101526040601f19601f8301168501019250505092915050565b80356001600160a01b0381168114611d4f57600080fd5b919050565b60008060408385031215611d6757600080fd5b611d7083611d38565b946020939093013593505050565b600080600060608486031215611d9357600080fd5b611d9c84611d38565b9250611daa60208501611d38565b9150604084013590509250925092565b600060208284031215611dcc57600080fd5b611dd582611d38565b9392505050565b600080600080600060a08688031215611df457600080fd5b611dfd86611d38565b97602087013597506040870135966060810135965060800135945092505050565b60008060408385031215611e3157600080fd5b611e3a83611d38565b9150611e4860208401611d38565b90509250929050565b6020808252825182820181905260009190848201906040850190845b81811015611e925783516001600160a01b031683529284019291840191600101611e6d565b50909695505050505050565b600060208284031215611eb057600080fd5b5035919050565b600181811c90821680611ecb57607f821691505b602082108103611eeb57634e487b7160e01b600052602260045260246000fd5b50919050565b634e487b7160e01b600052601160045260246000fd5b808202811582820484141761052257610522611ef1565b634e487b7160e01b600052601260045260246000fd5b600082611f4357611f43611f1e565b500490565b600060208284031215611f5a57600080fd5b81518015158114611dd557600080fd5b8181038181111561052257610522611ef1565b6020808252601c908201527f546f6b656e20646f6573206e6f7420657869737420696e20706f6f6c00000000604082015260600190565b60208082526027908201527f5269736b20706172616d657465722063616e6e6f74206265206c657373207468604082015266616e203130302560c81b606082015260800190565b60208082526035908201527f6d61785269736b506172616d657465722063616e6e6f74206265206c657373206040820152743a3430b71036b4b72934b9b5a830b930b6b2ba32b960591b606082015260800190565b634e487b7160e01b600052603260045260246000fd5b634e487b7160e01b600052603160045260246000fd5b8082018082111561052257610522611ef1565b80826001600160ff1b035b60018087116120a957506120d6565b8282048311156120bb576120bb611ef1565b808716156120c857928202925b9590951c949080029061209a565b50935093915050565b60008280156120f557600181146120ff57612108565b6001915050610522565b82915050610522565b508161211657506000610522565b5060016000821380821461212f57801561214e57612168565b6001600160ff1b0383900483111561214957612149611ef1565b612168565b6001600160ff1b0383900583121561216857612168611ef1565b50808316156121745750805b6121848360011c8384028361208f565b600082136001600160ff1b03829004831116156121a3576121a3611ef1565b60008212600160ff1b829005831216156121bf576121bf611ef1565b029392505050565b6000611dd560ff8416836120df565b81810360008312801583831316838312821617156121f6576121f6611ef1565b5092915050565b80820260008212600160ff1b8414161561221957612219611ef1565b818105831482151761052257610522611ef1565b60008261223c5761223c611f1e565b600160ff1b82146000198414161561225657612256611ef1565b500590565b808201828112600083128015821682158216171561227b5761227b611ef1565b505092915050565b60006001820161229557612295611ef1565b506001019056fea2646970667358221220ce88ee80293c94bea4cc00c53911ccdfaf35959ecff91da93554aea92e65fde164736f6c63430008130033",
    "sourcePath": "/home/csmit863/Documents/foundryprojects/goldtoken/src/solidusGold.sol",
    "compiler": {
        "name": "solc",
        "version": "0.8.19+commit.7dd6d404"
    },
    "functionHashes": {
        "addTokenAddress(address,uint256,uint256,uint256,uint256)": "2da1867a",
        "allowance(address,address)": "dd62ed3e",
        "alterMaxRiskParameter(address,uint256)": "4b3a35fb",
        "alterMinRiskParameter(address,uint256)": "1fa2634a",
        "approve(address,uint256)": "095ea7b3",
        "balanceOf(address)": "70a08231",
        "decimals()": "313ce567",
        "decreaseAllowance(address,uint256)": "a457c2d7",
        "deposit(address,uint256)": "47e7ef24",
        "getAddedTokens()": "dfef3ca9",
        "getTokenDetails(address)": "88aa8bee",
        "increaseAllowance(address,uint256)": "39509351",
        "increaseTokenSupplyCap(address,uint256)": "bbb32c21",
        "name()": "06fdde03",
        "owner()": "8da5cb5b",
        "redeem(address,uint256)": "1e9a6950",
        "reduceTokenSupplyCap(address,uint256)": "97b7cb6a",
        "removeTokenAddress(address)": "2496f315",
        "renounceOwnership()": "715018a6",
        "symbol()": "95d89b41",
        "tokenAddresses(uint256)": "e5df8b84",
        "tokens(address)": "e4860339",
        "totalSupply()": "18160ddd",
        "transfer(address,uint256)": "a9059cbb",
        "transferFrom(address,address,uint256)": "23b872dd",
        "transferOwnership(address)": "f2fde38b"
    },
    "gasEstimates": {
        "creation": {
            "codeDepositCost": "1782800",
            "executionCost": "infinite",
            "totalCost": "infinite"
        },
        "external": {
            "addTokenAddress(address,uint256,uint256,uint256,uint256)": "175812",
            "allowance(address,address)": "infinite",
            "alterMaxRiskParameter(address,uint256)": "32780",
            "alterMinRiskParameter(address,uint256)": "32792",
            "approve(address,uint256)": "24652",
            "balanceOf(address)": "2651",
            "decimals()": "267",
            "decreaseAllowance(address,uint256)": "27084",
            "deposit(address,uint256)": "infinite",
            "getAddedTokens()": "infinite",
            "getTokenDetails(address)": "11132",
            "increaseAllowance(address,uint256)": "infinite",
            "increaseTokenSupplyCap(address,uint256)": "30528",
            "name()": "infinite",
            "owner()": "2387",
            "redeem(address,uint256)": "infinite",
            "reduceTokenSupplyCap(address,uint256)": "infinite",
            "removeTokenAddress(address)": "infinite",
            "renounceOwnership()": "infinite",
            "symbol()": "infinite",
            "tokenAddresses(uint256)": "4702",
            "tokens(address)": "13298",
            "totalSupply()": "2349",
            "transfer(address,uint256)": "51095",
            "transferFrom(address,address,uint256)": "infinite",
            "transferOwnership(address)": "28446"
        },
        "internal": {
            "findTokenIndex(address)": "infinite"
        }
    }
}